:100000000EC028C027C026C025C092C223C022C06F
:1000100021C020C01FC01EC01DC008C524C511249A
:100020001FBECFE5D2E0DEBFCDBF10E0A0E6B0E05E
:10003000E8E8FCE002C005900D92A636B107D9F7BA
:1000400010E0A6E6B0E001C01D92AF39B107E1F7BC
:100050000DD318C6D5CF9C0180B7806180BF09C081
:1000600080E0000000008F5F8C30D9F70000215045
:10007000304021153105A1F708959C0180B78F7E8E
:1000800080BF09C080E0000000008F5F8C30D9F78E
:1000900000002150304021153105A1F70895CF927D
:1000A000DF92EF92FF920F931F93CF93DF937B0129
:1000B0008C016A011CBC81E480BF809163008DBD0E
:1000C000809164008EBD80EF90E0C5DF8CE390E00E
:1000D000D4DF80E290E08C199D0904C0EE0CFF1C77
:1000E000001F111F8A95D2F7C0E0D0E010C017FFA3
:1000F00003C088E790E002C08CE390E0ACDF8CE3C3
:1001000090E0BBDFEE0CFF1C001F111F2196CC15E9
:10011000DD0568F3DF91CF911F910F91FF90EF9074
:10012000DF90CF900895CF92DF92FF920F931F93AD
:10013000CF93DF936C011CBC81E480BF809163008E
:100140008DBD809164008EBD80EF90E084DF8CE3F4
:1001500090E093DF00E010E0F601E00FF11FF08087
:10016000C0E0D0E0F7FE03C088E790E002C08CE377
:1001700090E071DF8CE390E080DF2196C830D105FC
:1001800011F0FF0CEFCF0F5F1F4F0830110521F763
:10019000DF91CF911F910F91FF90DF90CF90089545
:1001A000CF92DF92EF92FF920F931F93CF93DF9343
:1001B0007B018C016A011CBC81E480BF80916300DB
:1001C0008DBD809164008EBD84E893E044DF82ECB5
:1001D00091E053DFC0E0D0E013C017FF06C088E312
:1001E00090E039DF80EA90E005C088E390E033DFFB
:1001F00088E390E042DFEE0CFF1C001F111F2196E8
:10020000CC15DD0554F388E390E025DF80E090E035
:1002100034DFDF91CF911F910F91FF90EF90DF902E
:10022000CF900895CF92DF92EF92FF920F931F939A
:10023000CF93DF937B018C016A011CBC81E480BFFA
:10024000809163008DBD809164008EBD80E290E05E
:10025000841B950B04C0EE0CFF1C001F111F8A9518
:10026000D2F789E590E0F7DE89E590E006DF89E5E1
:1002700090E0F1DEC0E0D0E014C017FF07C089E5D0
:1002800090E0FBDE89E590E0E6DE06C089E590E0DF
:10029000E2DE89E590E0F1DEEE0CFF1C001F111F8D
:1002A0002196CC15DD054CF380E090E0E6DEDF9191
:1002B000CF911F910F91FF90EF90DF90CF90089515
:1002C000AF92BF92CF92DF92EF92FF920F931F9364
:1002D000CF93DF937B018C015A011CBC81E480BF6A
:1002E000809163008DBD809164008EBD80E290E0BE
:1002F000841B950B04C0EE0CFF1C001F111F8A9578
:10030000D2F78AE091E0A7DE89E590E0B6DE8CE2E4
:1003100090E0A1DE8CE290E0B0DECC24DD241BC0B6
:1003200083E0C816D10419F0CCE2D0E002C0C8E5E1
:10033000D0E017FF05C0CE018EDECE019EDE04C0E8
:10034000CE019BDECE0187DEEE0CFF1C001F111FCD
:100350000894C11CD11CCA14DB0414F380E090E0A3
:100360008CDEDF91CF911F910F91FF90EF90DF9086
:10037000CF90BF90AF90089590919D009F3409F465
:10038000A2C0903588F4953209F43FC0963230F41B
:100390009332E9F0943209F09CC04DC0903471F072
:1003A000993409F096C075C09A3609F452C097374F
:1003B00009F47DC0993609F08CC050C0809184004A
:1003C000809366008091850080936200ACC030917C
:1003D000840020E08091850090E0282B392B40E0BC
:1003E00050E060E072E18AE790E0E9D3DA01C90108
:1003F00001978093630064E670E0BBD36091860050
:1004000070E0C9D3609364008EC08091840088231B
:1004100069F01CBC81E480BF809163008DBD809138
:1004200064008EBD80B7806180BF7DC080B78F7E45
:1004300080BFC19878C07091840060E020918500F1
:1004400030E0622B732B80E090E04CE050E027DE40
:100450006AC0809195009091840016C080918400BC
:10046000803410F0E0E401C0E0E8FF27E7FDF095FC
:10047000E856FF4F908180918500891708F053C09E
:100480008091950090918600890F8150809395000E
:100490004AC08091840080548093600080918500E0
:1004A000809361008091860080938D003CC0909184
:1004B000850080E020918400820F911D909394002C
:1004C00080939300089510929400109293001092DC
:1004D0008C008091840080938800809185008093B7
:1004E00089008091860080938A0085E5809384004E
:1004F00080916600809385008091620080938600E1
:100500009093870010928B00E4E8F0E08191909145
:100510008B00890F80938B0080E0EB38F807B1F7F0
:10052000CF01079700DE1092940010929300089577
:100530001F920F920FB60F9211248F9380919E00FD
:100540008F5F80939E008F910F900FBE0F901F9032
:100550001895282F2695982F38E006C0822F817095
:10056000990F982B315026952223C1F7892F90E0BF
:1005700002C0880F991F3A95E2F70895809197007D
:10058000882389F48091950090E065E070E0F1D2D5
:100590006091820070918300680F791F8EE890E06F
:1005A00045E050E049D34091960047FF10C02091AC
:1005B0008E0030E0842F992787FD90959095819546
:1005C0009F4F281739071CF410928E0005C08091A8
:1005D0008E00480F40938E0080918F0080939D0085
:1005E0008091900080938400809191008093850099
:1005F0008091920080938600BFDE08951F93162F8E
:1006000010929E004093950080939700882381F478
:1006100087E090E021D380938C0088E090E01CD3A9
:1006200080939C0089E090E0909383008093820007
:10063000112311F010939C00A1DF1F9108950F93D7
:100640001F93CF93DF9304E810E0C82FD0E0C00FD2
:10065000D11F04C0CFD1F80181938F010C171D0762
:10066000C9F7DF91CF911F910F910895DF92EF921B
:10067000FF920F931F93CF93DF9388EE93E028ECC4
:1006800030E0F9013197F1F70197D9F780E886BD9D
:1006900016BC95E093BF82E088BF89BF98BB8AE112
:1006A00087BB30E040ED57E06AE118C0C19ACA014B
:1006B0000197F1F7C198862F8A95F1F72F5F2431C2
:1006C000A9F780E090E0FA013197F1F7019621E077
:1006D0008C329207C1F73F5F333011F020E0E6CF54
:1006E00081E090E0B9D2E82E82E090E0B5D2F82E19
:1006F00083E090E0B1D2082F85E090E0ADD2182FD2
:1007000080E090E0A9D218160CF089E04DD110934A
:10071000960081E0E81621F48F2D602F40E06EDF17
:10072000789440E1E42E47E2F42EDD24DA9475D18A
:10073000882309F4DAC05ED180939D00813609F4E4
:100740007AC0823658F5833409F4ADC08434B0F4ED
:10075000873268F4853208F0A6C0833209F4A3C05A
:10076000843208F040C0813209F0BFC05EC08034DE
:1007700009F499C0813409F0B8C061C08F3409F41C
:1007800098C0803520F4883409F0AFC08CC0803523
:1007900009F480C08A3509F0A8C078C08C3609F405
:1007A0008AC08D3680F4863609F480C0873620F4FE
:1007B000833609F09AC077C0883609F474C0893648
:1007C00009F093C086C08F3609F473C0803720F4D7
:1007D0008E3609F08AC067C0803709F464C0843758
:1007E00009F083C063C085E02ADF809184008823FC
:1007F00049F41091850000E06091860070E0602B64
:10080000712B0BC0813009F070C0D0918500C0E021
:100810006091860070E06C2B7D2B882777FD80959A
:10082000982F4CE050E03BDC60C088E008DF84E8B3
:1008300090E079DC5AC080E090E00ED255C0109272
:10084000870010928600109285001092840084E048
:10085000F6DE60918400662309F447C0809187002A
:10086000681709F042C080918500803D09F03DC0C5
:10087000809186008D30C9F580E090E0F5D18091BF
:10088000840092D0C7010197F1F72FC082E6A1D072
:1008900081E62AC083E0D3DE80E06091850040914C
:1008A0008600ACDE22C083E0CADE03C081E0C7DE82
:1008B00063DD62DD1AC081E0C2DE8091840088239E
:1008C00041F487E090E0C8D184D088E090E0C4D1C2
:1008D00080D0809198007DD0809199007AD08091CD
:1008E0009A0077D080919B0074D086B390E080FD11
:1008F0009FEF9093980082FD02C080E001C08FEFCF
:1009000080939900E0916000EF3F89F09091610041
:100910009F3F69F0F0E0E856FF4F8081981738F468
:1009200080918D00815080939500D0929E004091DF
:100930008C00442309F4FBCE209193003091940065
:100940002115310571F080919E00893908F4EFCEB0
:1009500021503040309394002093930010929E00D9
:10096000E6CE90919E0080918E00981708F4DFCE1D
:1009700010929E00809195008F5F80939500841760
:1009800089F41092950080919C00815080939C0086
:100990008F3F19F410929C0005C0882319F410921F
:1009A0008C00C5CEEBDDC3CE10927B0010927A0096
:1009B00010928100109280008093670087B3856059
:1009C00087BBC29AC09AB89888EA8DB980EF8EB971
:1009D0000895282F909180009F5F937080918100EF
:1009E0009817E1F3E92FF0E0E458FF4F208390934C
:1009F0008000089590917A0080917B009817D1F340
:100A000080917B008F5F8F7080937B00E0917B00F3
:100A1000F0E0E659FF4F8081089590917A0080912F
:100A20007B0020E0981321E0822F08951F920F92FF
:100A30000FB60F9211248F931092690010926800E4
:100A4000B898B29B02C0B09BFCCFB09902C088EFAF
:100A500001C088EA8DB980EF8EB98F910F900FBEDB
:100A60000F901F9018951F920F920FB60F9211249E
:100A70008F939F93EF93FF9380916800909169000B
:100A80008230910509F443C08330910530F400971A
:100A900079F0019709F064C01CC08430910509F415
:100AA0003FC08430910590F0059709F059C041C0CE
:100AB0008FB1882331F08FB18695909167008917A7
:100AC00019F5789B43C081E090E042C08FB1882344
:100AD000D9F490918000809181009817A9F08091BD
:100AE00081008F5F837080938100E0918100F0E04E
:100AF000E458FF4F80818FB982E090E090936900C5
:100B000080936800B89A13C088EA8DB910C083E05A
:100B100090E09093690080936800B8981FB81EC059
:100B200085E090E09093690080936800B89880E732
:100B300016C080917A008F5F8F7080937A00E09169
:100B40007A008FB1F0E0E659FF4F808384E090E0B7
:100B500090936900809368001FB8B89A8EE78EB9A9
:100B6000FF91EF919F918F910F900FBE0F901F906B
:100B700018955527002480FF02C0060E571F660FE8
:100B8000771F6115710521F096958795009799F764
:100B9000952F802D0895AA1BBB1B51E107C0AA1FEA
:100BA000BB1FA617B70710F0A61BB70B881F991F0E
:100BB0005A95A9F780959095BC01CD01089597FBB2
:100BC000092E05260ED057FD04D014D00AD0001CE3
:100BD00038F450954095309521953F4F4F4F5F4FDA
:100BE0000895F6F790958095709561957F4F8F4F9A
:100BF0009F4F0895A1E21A2EAA1BBB1BFD010DC039
:100C0000AA1FBB1FEE1FFF1FA217B307E407F507BC
:100C100020F0A21BB30BE40BF50B661F771F881F98
:100C2000991F1A9469F760957095809590959B012E
:100C3000AC01BD01CF010895DC01CB01FC01E199BC
:100C4000FECF06C0FFBBEEBBE09A31960DB20D920F
:100C500041505040B8F70895E199FECF9FBB8EBB3D
:100C6000E09A99278DB30895262FE199FECF1CBAFB
:100C70009FBB8EBB2DBB0FB6F894E29AE19A0FBED4
:080C800001960895F894FFCFDE
:060C8800FFFF09D2460047
:00000001FF
